:020000040800F2
:100000007806002089010008970C0008AD0A000856
:10001000950C00088F020008930F000800000000F4
:100020000000000000000000000000002D0F00088C
:1000300091020008000000002B0F00082F0F00089D
:10004000A3010008A3010008A3010008A301000800
:10005000A3010008A3010008A3010008A3010008F0
:10006000A3010008A3010008A3010008A3010008E0
:10007000A3010008A3010008A3010008A3010008D0
:10008000A3010008A3010008A3010008A3010008C0
:10009000A3010008A3010008A3010008A3010008B0
:1000A000A3010008A3010008A3010008A3010008A0
:1000B000A3010008A3010008A3010008A301000890
:1000C000A3010008A3010008A3010008A301000880
:1000D000A3010008A3010008A3010008A301000870
:1000E000A3010008A3010008A301000800F002F822
:1000F00000F03AF80AA090E8000C82448344AAF188
:100100000107DA4501D100F02FF8AFF2090EBAE885
:100110000F0013F0010F18BFFB1A43F0010318473B
:100120001817000038170000103A24BF78C878C1AB
:10013000FAD8520724BF30C830C144BF04680C60ED
:10014000704700000023002400250026103A28BF35
:1001500078C1FBD8520728BF30C148BF0B60704739
:100160001FB51FBD10B510BD00F058F81146FFF7C0
:10017000F7FF00F01FFF00F076F803B4FFF7F2FF7F
:1001800003BC00F07DF8000009488047094800479B
:10019000FEE7FEE7FEE7FEE7FEE7FEE7FEE7FEE737
:1001A000FEE7FEE704480549054A064B7047000094
:1001B000910F0008ED00000878000020780600206C
:1001C00078020020780200204FF0000200B51346AC
:1001D00094469646203922BFA0E80C50A0E80C5067
:1001E000B1F12001BFF4F7AF090728BFA0E80C5018
:1001F00048BF0CC05DF804EB890028BF40F8042B11
:1002000008BF704748BF20F8022B11F0804F18BF7D
:1002100000F8012B7047704770477047754600F033
:100220002BF8AE4605006946534620F00700854688
:1002300018B020B5FFF7B6FFBDE820404FF000062C
:100240004FF000074FF000084FF0000B21F00701BE
:10025000AC46ACE8C009ACE8C009ACE8C009ACE801
:10026000C0098D46704710B50446AFF300802046A4
:10027000BDE81040FFF781BF004870471400002020
:1002800001491820ABBEFEE7260002007047FEE7DA
:100290007047000070B5044600F008F90546601C80
:1002A00002D004480078044400F000F9401BA0424A
:1002B000FAD370BD000000202DE9F84FDFF8B891A7
:1002C000002409F1040A0AF1040B23460F270BF15D
:1002D000040EC9E00125A5402A40AA427DD1674EFF
:1002E000D1F804C0ACEB0608B44532D014DCBCF144
:1002F000030F3AD009DCBCF1000F2AD0BCF1010F8A
:100300001CD0BCF1020F31D11DE0BCF1110F17D090
:10031000BCF1120F2AD119E0B8F5881F19D006DCFC
:10032000B8F5803F15D0B8F5801F1FD111E0B8F5A2
:10033000001F0ED0B8F5041F18D10AE0CB6815E0F5
:10034000CB681B1D12E0CB6808330FE0CB680C3381
:100350000CE08B682BB1012B4FF0080303D04561F3
:1003600004E0042302E0056100E00023FF2A01D835
:10037000064601E000F104064FEA840501D9A5F123
:100380002005D6F8008007FA05FC28EA0C0803FAD5
:1003900005F548EA0508C6F800804D68ED0062D50D
:1003A000374DAE6946F00106AE61AD6924F0030633
:1003B00005F001050095334D06EB050CDCF80850FF
:1003C000A607360F07FA06F825EA0805DFF8B88011
:1003D000404503D14FF0000817E044E0DFF8AC805F
:1003E000404502D14FF001080FE0DFF8A4804045FE
:1003F00002D14FF0020808E0DFF89880404502D1B2
:100400004FF0030801E04FF0040808FA06F848EA44
:100410000508CCF808804D68D9F80060ED034D461A
:1004200001D5164300E096432E604D68DAF800606F
:10043000AD03554601D5164300E096432E604D6846
:10044000DBF80060ED025D4601D5164300E09643FF
:100450002E604D68DEF80060AD02754601D516438A
:1004600000E096432E60641C0D682A46E5407FF448
:1004700031AFBDE8F88F000000040140000011100A
:10048000001002400000014000080140000C014043
:1004900000100140001401408068084000D0012095
:1004A00070470AB1016170470904FBE701488068A1
:1004B0007047000000000020024881680278114463
:1004C0008160704700000020074810B5016841F0C6
:1004D00010010160032000F067F80F2000F006F81B
:1004E00000F024F8002010BD0020024070B50D4D32
:1004F00004464FF47A712878B1FBF0F00A49096894
:10050000B1FBF0F000F0BEFA48B9102C07D200227F
:100510002146501E00F028F800206C6070BD0120BC
:1005200070BD0000000000200C0000200C4808B541
:10053000816941F001018161816901F0010100914E
:10054000C16941F08051C161C06900F080500090E4
:100550000448416821F0E06141F00071416008BD4C
:100560000010024000000140F0B40E4B1B680C4626
:10057000C3F30223C3F10705042D00D90425191D77
:10058000072901D2002300E0DB1E012606FA05F14F
:10059000491E214099409E40761E16403143F0BCD2
:1005A00000F0F8BC0CED00E0064900F00702086816
:1005B0004FF6FF03184040EA0220034A1043086048
:1005C000704700000CED00E00000FA052DE9F0474F
:1005D0000F46050061D0434E306800F00700B84276
:1005E00009D2306820F0070038433060306800F0EE
:1005F0000700B84251D128683B4C810712D540070B
:1006000003D5606840F4E06060602878000703D597
:10061000606840F4605060606068A96820F0F00095
:10062000084360602878C00728D06868012810D087
:100630002168022810D0890700292EDA616821F08C
:10064000030101436160FFF731FF804641F28839C1
:100650000DE021688903EFE78901EDE7FFF726FF49
:10066000A0EB0801494502D90320BDE8F087606886
:10067000696800F00C00B0EB810FEFD1306800F03A
:100680000700B8420BD9306820F0070038433060CB
:10069000306800F00700B84201D00120E5E7287873
:1006A000400705D56068E96820F4E06008436060B1
:1006B0002878000706D56068296920F4605040EA70
:1006C000C100606000F018F86168084AC1F30311C6
:1006D000515CC8400649086006480068FFF706FFFD
:1006E0000020C2E70020024000100240281000084D
:1006F0000C0000200400002012A185B00FC98DE875
:100700000F0014A0144A006804905168134801F0C7
:100710000C03042B10D0082B0ED1C1F38343C90363
:100720001DF803000AD5516804AAC1F34041515C89
:100730000A4A5043B0FBF1F005B0704708494843FE
:10074000FAE7000002030405060708090A0B0C0D6E
:100750000E0F1010010200000010024000127A007B
:1007600000093D002DE9F84F040070D02078C04DFD
:10077000C00749D06868C0F38100012807D06868C5
:10078000C0F38100022809D16868C00306D5286833
:10079000800339D560680028E7D035E06068B0F59F
:1007A000803F0BD010B1B0F5A02F11D0286820F4F5
:1007B00080302860286820F4802002E0286840F417
:1007C00080302860606890B1FFF770FE06460AE04E
:1007D000286840F480202860F0E700BFFFF766FE3D
:1007E000801B642873D828688003F7D50CE0FFF7D6
:1007F0005DFE064605E000BFFFF758FE801B64283B
:10080000F0D828688003F7D420789A4E80074FF0FC
:1008100001094FF0000839D5686810F00C0F07D0B7
:100820006868C0F38100022809D16868C00306D453
:100830002868800714D52069012808D110E02069B4
:10084000B0B1C6F80090FFF731FE074605E00AE1B7
:10085000FFF72CFEC01B0228C4D828688007F7D5F4
:100860002868616920F0F80040EAC10028600DE0C6
:10087000C6F80080FFF71AFE074604E0FFF716FEF1
:10088000C01B022823D828688007F7D420780007E7
:100890002CD57948A169D9B1C0F80090FFF706FEC0
:1008A000074604E0FFF702FEC01B02280FD8686A63
:1008B0008007F7D571484FF4FA510068B0FBF1F0AA
:1008C000009000BF0098411E0091FAD20EE080E037
:1008D000C0F80080FFF7EAFD074604E0FFF7E6FDF9
:1008E000C01B022875D8686A8007F7D420784007B3
:1008F00060D5E8690027C00008D4E86940F080505E
:10090000E861E869012700F0805000905C480168C8
:10091000C90513D40168834641F480710160FFF773
:10092000C5FD824606E000BFFFF7C0FDA0EB0A0050
:1009300064284ED8DBF80000C005F5D5E068012832
:100940000AD008B1052813D0286A20F001002862D7
:10095000286A20F0040002E0286A40F001002862C2
:10096000E06841F2883B98B1FFF7A0FD82460BE0BA
:10097000286A40F004002862EEE700BFFFF796FD0A
:10098000A0EB0A0159455AD8286A8007F6D50CE031
:10099000FFF78CFD824605E0FFF788FDA0EB0A011A
:1009A00059454CD8286A8007F6D41FB1E86920F071
:1009B0008050E861E06988B36968C1F38101022968
:1009C00044D00228C6F8608004D0FFF76FFD0446CB
:1009D00038E034E0FFF76AFD074604E0FFF766FD04
:1009E000C01B02282BD828688001F7D4206AB0F5F4
:1009F000803F05D16868A16820F400300843686032
:100A0000D4E908010843696821F474110843686057
:100A1000C6F86090FFF74AFD044606E025E000BFF7
:100A2000FFF744FD001B022809D828688001F7D58C
:100A30001BE000BFFFF73AFD001B022802D903208C
:100A4000BDE8F88F28688001F4D40EE00128F7D0C3
:100A50006868226A00F48031914204D1616A00F42E
:100A60007010884201D00120EAE70020E8E700008A
:100A70000010024000004242800442420C0000206C
:100A80000070004010B5401EB0F1807F01D30120FE
:100A900010BD4FF0E02460610F21601700F07AFA7A
:100AA0000020A06107202061002010BDFEE708B5EE
:100AB0000090411E009101D30846FAE708BD0000EE
:100AC00070B5184D0024224601212846FFF7E9FCA5
:100AD000012202212846FFF7E4FC6420FFF7E7FF2C
:100AE000012211462846FFF7DCFC05E0641C642C5B
:100AF0000FD00A20FFF7DBFF02212846FFF7CCFCCE
:100B00000028F3D1002201212846FFF7CAFC00206B
:100B100070BD002201212846FFF7C3FC4FF0FF30D3
:100B200070BD0000000C014010B50C4C01221146B4
:100B30002046FFF7B6FC012202212046FFF7B1FC58
:100B40006420FFF7B4FF002202212046FFF7A9FC32
:100B5000BDE810406420FFF7AABF0000000C014070
:100B600010B50C4C012211462046FFF79AFC0022DA
:100B700002212046FFF795FC6420FFF798FF012231
:100B800002212046FFF78DFCBDE810406420FFF7EE
:100B90008EBF0000000C014070B5134E05460024C6
:100BA000002201213046FFF77CFC6420FFF77FFF25
:100BB000280601D5012200E0002202213046FFF77D
:100BC00070FC6806050E012211463046FFF769FCED
:100BD0006420FFF76CFF641CE4B2082CE0D3BDE88E
:100BE0007040FFF76DBF0000000C01402DE9F0419F
:100BF00086B00024244800940194029403948169EF
:100C000041F010018161816901F010010491816955
:100C100041F020018161816901F020010491816925
:100C200041F008018161816901F008010491816945
:100C300041F0040181618069144F00F004004FF419
:100C400000550490002229463846FFF72AFCDFF8B9
:100C50004080002203214046FFF723FC0095022636
:100C600011250396CDE9015469463846FFF724FB68
:100C70000320CDE90005CDE9024669464046FFF76D
:100C80001BFB06B0BDE8F0810010024000100140DF
:100C9000000C0140FEE7FEE710B5A0B00024802163
:100CA0006846FFF791FA0021204600F009F98021FB
:100CB000684600F01FF9641CE4B2082CF3D320B09E
:100CC00010BD10B5022000F0CDF83F2000F0DCF898
:100CD000002000F0B3F8002000F0BDF8A12000F0E3
:100CE000F8F8C82000F0F5F80021084600F074F884
:100CF0007F2000F087F8A42000F0EBF8A62000F099
:100D0000E8F80821002000F087F8012000F03CF806
:100D10000021012000F060F8BDE81040AF2000F095
:100D2000D8B870B516460D4604460DE02946204653
:100D300000F00EF80835EDB27F2D01D9A41CE4B205
:100D4000072C00D90024761C3278002AEED170BD21
:100D500070B514460E46054600F0B2F80948082161
:100D600000EB0410044600F0C5F86D1CE8B23146F3
:100D700000F0A6F804F10800BDE87040082100F07A
:100D8000B9B800003810000810B5040001D0012CDB
:100D90000AD18D2000F09DF8102000EB8400BDE802
:100DA0001040C0B200F095B810BD000010B5044668
:100DB0000848007802280CD17F2C0AD804F00F00D4
:100DC00000F087F8102000EB1410BDE8104000F090
:100DD00080B810BD1000002070B50C46050001D091
:100DE000012D0ED10CB1012C0BD1DA2000F071F8DD
:100DF000280100EB4410BDE87040801CC0B200F038
:100E000068B870BD10B50446812000F062F8204635
:100E1000BDE8104000F05DB870B50C4605460F28DF
:100E20000BD80F2C09D8D52000F053F805EB04108F
:100E3000BDE87040C0B200F04CB870BD10B50446BB
:100E40003F2807D8D32000F044F82046BDE81040E2
:100E500000F03FB810BD3F2803D84030C0B200F0CA
:100E600038B8704710B5040003D0012C01D0022C13
:100E700007D1202000F02DF8204600F02AF8014884
:100E8000047010BD1000002010B504460F38312842
:100E900007D2A82000F01DF82046BDE8104000F061
:100EA00018B810BD05490978022905D1072803D8CB
:100EB000B030C0B200F00DB8704700001000002044
:100EC00010B50C46FFF7EEFF2046BDE81040FFF7D7
:100ED0006DBF10B50446FFF727FE7820FFF75CFED4
:100EE0000020FFF759FE2046FFF756FEBDE81040F0
:100EF000FFF736BE70B50E4605004FF0000413D064
:100F0000FFF712FE7820FFF747FE4020FFF744FE70
:100F100004E0285DFFF740FE641CA4B2B442F8D39D
:100F2000BDE87040FFF71CBE70BD70477047FFF70B
:100F3000C3BA30B58FB028216846FFF745F91421B0
:100F40000AA8FFF741F901210804CDE900100024A7
:100F5000029402250491CDE907504FF4E010099066
:100F60006846FFF7FFFB08B172B6FEE70F20CDE938
:100F70000A054FF48060CDE90C4002210AA80E94C6
:100F8000FFF724FB002801D072B6FEE70FB030BD9A
:100F90007047FEE70907090E002804DB00F1E02096
:100FA00080F80014704700F00F0000F1E02080F896
:100FB000141D7047FFF788FAFFF7BBFFFFF716FE17
:100FC000FFF77FFEFFF768FE002141220846FFF78A
:100FD000BFFE592210210020FFF7BAFE0DA200210A
:100FE0000220FFF79EFE0F4D4FF4FA764FF40054A7
:100FF0003046FFF74FF9012221462846FFF751FA04
:101000003046FFF747F9002221462846FFF749FA04
:10101000EEE7000048656C6C6F20576F726C6421BE
:10102000000000000010014000000000000000006F
:101030000102030406070809000000000000000088
:10104000000000000000000000FE02020202020296
:10105000003F202020202020000000000000000091
:10106000000000000000000000FE02020202020276
:10107000003F20202020202000FE02020202020267
:10108000003F20202020202000FE02020202020257
:10109000003F20202020202000FE02020202020247
:1010A000003F20202020202000FE02020202020237
:1010B000003F20202020202000FE02020202020227
:1010C000003F202020202020000000000000000021
:1010D0000000000000000000000000000000000010
:1010E0000000000000000000000000000000000000
:1010F000000000000000000000FE020202020202E6
:10110000003F20202020202000FE020202020202D6
:10111000003F20202020202000FE020202020202C6
:10112000003F20202020202000FE020202020202B6
:10113000003F20202020202000FE020202020202A6
:10114000003F20202020202000FE02020202020296
:10115000003F20202020202000FE02020202020286
:10116000003F20202020202000FE02020202020276
:10117000003F20202020202000FE02020202020266
:10118000003F20202020202000FE02020202020256
:10119000003F20202020202000FE02020202020246
:1011A000003F20202020202000FE02020202020236
:1011B000003F20202020202000FE02020202020226
:1011C000003F20202020202000FE02020202020216
:1011D000003F20202020202000FE02020202020206
:1011E000003F20202020202000FE020202020202F6
:1011F000003F2020202020200000000000000000F0
:1012000000000000000000000000000000000000DE
:1012100000000000000000000000000000000000CE
:1012200000000000000000000000000000000000BE
:1012300000000000000000000000000000000000AE
:101240000000000000000000000000F800000000A6
:10125000000000330000000000100C02100C02001F
:1012600000000000000000000040C07840C078008E
:1012700000043F04043F040000708888FC0830002C
:1012800000182020FF211E00F008F08060180000E8
:1012900000310C031E211E0000F0088870000000C1
:1012A0001E21232C1927211000120E00000000001F
:1012B0000000000000000000000000E01804020030
:1012C000000000071820400000020418E0000000A1
:1012D0000040201807000000404080F0804040009F
:1012E0000202010F0102020000000000E000000005
:1012F000000101010F0101010000000000000000D9
:1013000000907000000000000000000000000000DD
:1013100000010101010101000000000000000000C7
:10132000003030000000000000000000C038040061
:10133000006018070000000000E010080810E0003E
:10134000000F102020100F0000001010F800000007
:10135000000020203F202000007008080808F0004E
:10136000003028242221300000300808088870004E
:101370000018202121221C000000804030F80000CD
:1013800000060524243F242400F8888888080800E3
:101390000019202020110E0000E010888890000025
:1013A000000F112020201F0000180808886818006E
:1013B0000000003E010000000070880808887000EE
:1013C000001C222121221C0000F008080810E00067
:1013D0000001122222110F00000000C0C000000016
:1013E000000000303000000000000080000000001D
:1013F000000000E000000000000080402010080015
:10140000000102040810200000404040404040001D
:1014100000020202020202000008102040800000C8
:1014200000201008040201000070480808887000BD
:101430000000003037000000C030C828E810E0008D
:10144000071827282F2817000000C038E0000000E8
:10145000203C23020227382008F888888870000082
:10146000203F202020110E00C03008080808380056
:10147000071820202010080008F808080810E000CD
:10148000203F202020100F0008F88888E80810006E
:10149000203F20202320180008F88888E808100042
:1014A000203F200003000000C0300808083800007A
:1014B00007182020221E020008F808000008F8087B
:1014C000203F210101213F20000808F80808000002
:1014D0000020203F2020000000000808F808080035
:1014E000C08080807F00000008F888C028180800AD
:1014F000203F20012638200008F8080000000000E6
:10150000203F20202020300008F8F800F8F80800DC
:10151000203F013E013F200008F830C00008F808D5
:10152000203F200007183F00E01008080810E000E6
:101530000F10202020100F0008F808080808F000FD
:10154000203F210101010000E01008080810E00020
:101550000F10282830504F0008F8888888887000BD
:10156000203F2000030C3020007088080808380055
:101570000038202121221C00180808F8080818004B
:101580000000203F2000000008F808000008F808CC
:10159000001F202020201F000878880000C838087D
:1015A000000007380E01000008F800F800F80800F5
:1015B00000033E013E030000081868808068180898
:1015C00020302C03032C30200838C800C83808000D
:1015D0000000203F2000000010080808C83808005C
:1015E0002038262120201800000000FE0202020000
:1015F0000000007F40404000000438C000000000B0
:10160000000000010638C00000020202FE000000D7
:10161000004040407F00000000000402020400007F
:1016200000000000000000000000000000000000BA
:1016300080808080808080800002020400000000A2
:10164000000000000000000000008080800000001A
:1016500000192424123F200010F0008080000000B8
:10166000003F112020110E0000000080808000004B
:10167000000E112020201100000080808090F000DA
:10168000001F202020103F2000008080808000006C
:10169000001F242424241700008080E09090200064
:1016A0000020203F202000000000808080808000FB
:1016B000006B94949493600010F000808080000090
:1016C000203F210000203F2000809898000000006B
:1016D0000020203F2020000000000080989800009B
:1016E00000C08080807F000010F0000080808000BB
:1016F000203F240629302000001010F800000000D0
:101700000020203F2020000080808080808080009A
:10171000203F20003F20003F80800080808000002C
:10172000203F210000203F200000808080800000BA
:10173000001F202020201F008080008080000000EB
:1017400080FF912020110E000000008080008000AA
:10175000000E11202091FF8080808000808080001A
:1017600020203F2120000100000080808080800038
:101770000033242424241900008080E080800000AD
:101780000000001F202010008080000000808000EA
:10179000001F202020103F2080808000808080005B
:1017A00000030C300C0300008080008080008080EB
:1017B000010E300C07380601008080800080800018
:1017C0000020310E2E31200080808000008080803B
:1017D000008186781806010000808080808080006B
:1017E0000021302C222130000000000000FC020209
:1017F00000000000013E404000000000FF0000002B
:1018000000000000FF0000000202FC0000000000D9
:1018100040403E01000000000002010202040200FC
:1018200000000000000000000000000000000000B8
:101830000000000000000000581800080000002010
:1018400014000000280100086C1800081400002093
:1018500064060000440100080100000010000000C0
:0C186000000000000024F4000200000062
:04000005080000ED02
:00000001FF
